:060000000A128A11122809
:10000800FE00030EF1000408F2000A08F300831250
:1000180003137F08F4000A128A150B2C0A128A159A
:10002800CB2B83160313C301831203135C08A800A8
:100038005D08A9005E08AA000A128A1139270A1267
:100048008A11831203132B0883160313C200831229
:1000580003132A0883160313C10083120313290804
:1000680083160313C000831203132808831603138F
:10007800BF004208410440043F04031D44284528AA
:10008800D728303083120313E00083160313430884
:10009800A03E84008312031360088313800001309C
:1000A800E000600883160313C307E028D728003050
:1000B80083120313A3000030A2000030A1000A300D
:1000C800A00083160313420883120313A7008316A4
:1000D8000313410883120313A60083160313400871
:1000E80083120313A500831603133F088312031317
:1000F800A4000A128A159E240A128A118312031375
:100108002008303EE000831603134308A03E840015
:10011800831203136008831380000130E000600835
:1001280083160313C307003083120313A3000030A0
:10013800A2000030A1000A30A00083160313420871
:1001480083120313A70083160313410883120313B2
:10015800A60083160313400883120313A500831611
:1001680003133F0883120313A4000A128A15FC2400
:100178000A128A1183120313230883160313C20079
:1001880083120313220883160313C1008312031377
:10019800210883160313C000831203132008831653
:1001A8000313BF00D7284208410440043F04031D3D
:1001B800DE28DF285B28E028BD014308FF3E8312C4
:1001C8000313E000600883160313BE001F293D08CF
:1001D800A03E84008313000883120313E000600824
:1001E80083160313B3003E08A03E84000008831260
:1001F8000313E000831603133D08A03E8400831216
:100208000313600880008316031333088312031353
:10021800E000831603133E08A03E840083120313F4
:10022800600880000130E000600883160313BD07F2
:100238000130BE021F293E083D02031C242925293E
:10024800EB282629831203135F08031D2C29E32AB0
:100258002E30E000831603134308A03E8400831267
:1002680003136008831380000130E00060088316E0
:100278000313C307831203135C08CF005D08D00083
:100288005E08D1005C08A8005D08A9005E08AA0005
:100298000A128A1139270A128A11831203132B08AA
:1002A800BC002A08BB002908BA002808B9000A12AD
:1002B8008A1595230A128A11831203133908B60086
:1002C8003A08B7003B08B8000A128A15AB220A128E
:1002D8008A11831203133608D2003708D30038086E
:1002E800D4000A128A113D240A128A1183120313B8
:1002F8004F0883160313B0008312031350088316A4
:100308000313B10083120313510883160313B200B9
:100318000030B8000030B7000030B6000130B5003A
:10032800B401DE29003083120313A3000030A200B9
:100338000030A1000A30A000831603133808831286
:100348000313A70083160313370883120313A600A9
:1003580083160313360883120313A50083160313A9
:10036800350883120313A4000A128A1552240A12AC
:100378008A1183120313230883160313B800831208
:100388000313220883160313B700831203132108EB
:1003980083160313B600831203132008831603136E
:1003A800B500013083120313E000600883160313BD
:1003B800B407DE29831203135F088316031334027C
:1003C800031CE729E8299629E92938088312031329
:1003D800BC0083160313370883120313BB0083166C
:1003E8000313360883120313BA0083160313350860
:1003F80083120313B9000A128A1595230A128A1167
:10040800831203133908C2003A08C3003B08C4002A
:1004180083160313300883120313BF0083160313D4
:10042800310883120313C0008316031332088312A2
:100438000313C1000A128A1183250A128A11831232
:1004480003133F08D2004008D3004108D40000300D
:10045800CF000030D0003F30D1000A128A113D246D
:100468000A128A11831203134F08A8005008A90022
:100478005108AA000A128A1139270A128A1183120E
:1004880003132B0883160313BC00831203132A08D3
:1004980083160313BB00831203132908831603135F
:1004A800BA0083120313280883160313B900DB2A42
:1004B80000308312A3000030A2000030A1000A30EF
:1004C800A000831603133C0883120313A7008316A6
:1004D80003133B0883120313A600831603133A0879
:1004E80083120313A5008316031339088312031319
:1004F800A4000A128A159E240A128A118312031371
:100508002008303EE000831603134308A03E840011
:10051800831203136008831380000130E000600831
:1005280083160313C307003083120313A30000309C
:10053800A2000030A1000A30A000831603133C0873
:1005480083120313A700831603133B0883120313B4
:10055800A600831603133A0883120313A500831613
:100568000313390883120313A4000A128A15FC2402
:100578000A128A1183120313230883160313BC007B
:1005880083120313220883160313BB008312031379
:10059800210883160313BA00831203132008831655
:1005A8000313B900013083120313DF02DB2A83121D
:1005B800DF08031DE02AE12A5C2AE32AE32A8316DE
:1005C80003134308A03E840083138001A0308312E4
:1005D8000313A8000030A9000A128A1500230A1282
:1005E8008A11080083160313880189010F308600D9
:1005F8000808F73988000A128A1560230A128A1136
:1006080007308316031381008B168B170B170030E6
:10061800EC007A30ED004430EE006C0883120313CE
:10062800C600831603136D0883120313C7008316CD
:1006380003136E0883120313C8000A128A156C2567
:100648000A128A110A128A15C9220A128A1111304D
:1006580083120313A8008030A9000A128A15002308
:100668000A128A11093083120313A8008030A900E6
:100678000A128A1500230A128A1101308312031301
:10068800A8008030A9000A128A1500230A128A11CC
:10069800831603136C0883120313DC0083160313F9
:1006A8006D0883120313DD00831603136E0883128B
:1006B8000313DE00DF010314DF0D0A128A1115206F
:1006C8000A128A11173083120313A8008030A90078
:1006D8000A128A1500230A128A11722B0A128A1525
:1006E8005E260A128A1183120313E1006108831639
:1006F8000313D8005808FF3A0319832B842B722B55
:100708005808903E84008317000883120313E10001
:10071800610883160313D900C4308400DA308312C9
:100728000313E1000408E2001230E30061088400CA
:1007380083130008E400E10A62088400640880006A
:10074800E20AE30B9A2B3130831603135902031C78
:10075800AE2BAF2B722B373059020318B42BB52BA5
:10076800722B5908CF3ED600FF3003180030D7004F
:10077800033083120313E1006108A00083160313FA
:1007880056080A128A11DF270A128A11C43E840009
:100798008313000883160313EC00840A0008ED0095
:1007A800840A0008EE000A128A15C9220A128A1160
:1007B800113083120313A8008030A9000A128A1589
:1007C80000230A128A118316031359080A128A157C
:1007D800A1220A128A11013083120313A800803063
:1007E800A9000A128A1500230A128A118316031314
:1007F8006C0883120313DC00831603136D0883123D
:100808000313DD00831603136E0883120313DE003F
:10081800DF010314DF0D0A128A1115200A128A114A
:10082800173083120313A8008030A9000A128A1512
:1008380000230A128A11831603136C088312031308
:10084800C600831603136D0883120313C7008316AB
:1008580003136E0883120313C8000A128A156C2545
:100868000A128A11722B722B722B722B0A128A119E
:100878001228831203134F08D5005008D6005108D8
:10088800D7000310560D570DD8005808DB00520842
:10089800D5005308D6005408D7000310560D570D3D
:1008A800D8005808DA005B08031D5B2C6C2C5A082A
:1008B8005B020318602C612C742C5B03FF3A5A0707
:1008C800D50019305502031C6A2C6B2C742C6C2C27
:1008D8005208CF005308D0005408D100822D822D31
:1008E8005A08031D782C882C5B085A0203187D2CA3
:1008F8007E2C892C5A03FF3A5B07D5001930550224
:10090800031C872C882C892C822D0630D50055088D
:10091800D900D11F902C912C922CD917D41F952C2B
:10092800962C972C5917D017FF30CF05FF30D005DC
:100938000030D105D317FF30D205FF30D305003082
:10094800D4055A085B020318AA2CAB2CDC2CAC2C5F
:1009580001300310D20DD30DD40DFF3E031DAD2C75
:100968000130DA025A085B060319BB2CBC2CD42CC4
:100978000130D90259080739031DC32CC42CAC2CEB
:10098800D42CD42CD42C01300310D10CD00CCF0C87
:10099800FF3E031DC82C0130D5005508DB07D42CB9
:1009A8005B085A06031DD92CDA2CC72C132D132DDE
:1009B8005B085A020318E12CE22C132DE32C0130BA
:1009C8000310CF0DD00DD10DFF3E031DE42C0130D7
:1009D800DB025A085B060319F22CF32C0B2D0130AD
:1009E800D90259080739031DFA2CFB2CE32C0B2DCF
:1009F8000B2D0B2D01300310D40CD30CD20CFF3E61
:100A0800031DFF2C0130D5005508DA070B2D5B08B4
:100A18005A06031D102D112DFE2C132D132DD91F31
:100A2800162D172D282DFF30CF06FF30D006FF30AA
:100A3800D1060130CF07003003180130D00700304D
:100A480003180130D107282D591F2B2D2C2D3D2D92
:100A5800FF30D206FF30D306FF30D4060130D2076C
:100A6800003003180130D307003003180130D407D1
:100A78003D2DD9014F08D207500803110318500A19
:100A88000319472DD307510803110318510A0319F5
:100A98004E2DD407D41F512D522D662DFF30D2066E
:100AA800FF30D306FF30D4060130D20700300318D8
:100AB8000130D307003003180130D407D9010314DB
:100AC800D90D662D5208A0005308A1005408A200B1
:100AD8005B08D5005508A3005908D6005608A4009D
:100AE8000A128A15E1250A128A11831203132008B3
:100AF800CF002108D0002208D100822D08008312DF
:100B080003133F08C5004008C6004108C70003108A
:100B1800460D470DC8004808C900C908031D952D92
:100B2800962D9E2D0030BF000030C0000030C1005F
:100B3800702E702E4208C5004308C6004408C7003E
:100B48000310460D470DC8004808CE00CE08031D07
:100B5800AE2DAF2DB72D0030BF000030C0000030E3
:100B6800C100702E702E4E087B3EC5004508C9078F
:100B78003F08C5004008C6004108C70010300310F0
:100B8800C70CC60CC50CFF3E031DC32D4508C80085
:100B98004808CE004208C5004308C6004408C700FC
:100BA80010300310C70CC60CC50CFF3E031DD52D15
:100BB8004508C8004808CE068030C5004508CE055F
:100BC800C017C317FF30C205FF30C3050030C40586
:100BD8000030CA000030CB000030CC000730C50020
:100BE8004508CD00F72D3F1CFA2DFB2D0C2E420891
:100BF800CA07430803110318430A0319042ECB0735
:100C0800440803110318440A03190B2ECC070C2EB1
:100C180001300310C10CC00CBF0CFF3E031D0D2E8C
:100C280001300310C20DC30DC40DFF3E031D152E68
:100C38000130CD02031D212E222EF72D232E09303F
:100C4800C5004508CD00282E3F1C2B2E2C2E3D2EEE
:100C58004208CA07430803110318430A0319352E2B
:100C6800CB07440803110318440A03193C2ECC0788
:100C78003D2E01300310C10CC00CBF0CFF3E031DFC
:100C88003E2E01300310CC0CCB0CCA0CFF3E031DCA
:100C9800462E0130CD02031D522E532E282E542EDF
:100CA8004A08A0004B08A1004C08A2004908C5004A
:100CB8004508A3004E08C6004608A4000A128A1573
:100CC800E1250A128A11831203132008BF002108A4
:100CD800C0002208C100702E0800831203133908CF
:100CE800BC003A08BD003B08BE0003103D0D3E0D98
:100CF800BF003F08C400C408031D832E842E8C2E19
:100D08000030B6000030B7000030B800382F382F58
:100D18003608BC003708BD003808BE0003103D0D7A
:100D28003E0DBF003F08C500C508031D9C2E9D2E23
:100D3800A52E0030B6000030B7000030B800382FBC
:100D4800382F0030C1000030C2000030C3008930A5
:100D58004507BC003C08C4023908BC003A08BD007D
:100D68003B08BE0010300310BE0CBD0CBC0CFF3E8F
:100D7800031DB72E3C08BF003F08C5003608BC005D
:100D88003708BD003808BE0010300310BE0CBD0C7B
:100D9800BC0CFF3E031DC92E3C08BF003F08C5061A
:100DA8008030BC003C08C505BA17FF30B905FF30D4
:100DB800BA050030BB05B717FF30B605FF30B705D9
:100DC8000030B8051830BC003C08C000EB2E0130DC
:100DD8000310C10DC20DC30DFF3E031DEC2E3808D4
:100DE8003B02031DFD2E37083A02031DFD2E36086F
:100DF8003902031C002F012F0D2F3608B9023708BE
:100E0800031C370FBA023808031C380ABB02411406
:100E18000D2F01300310B90DBA0DBB0DFF3E031D98
:100E28000E2F0130C002031D1A2F1B2FEB2E1C2F73
:100E38004108A0004208A1004308A2004408BC00E1
:100E48003C08A3004508BD003D08A4000A128A1505
:100E5800E1250A128A11831203132008B60021081B
:100E6800B7002208B800382F080083120313280897
:100E7800AC002908AD002A08AE0003102D0D2E0D78
:100E8800AF002F08B500B508031D4B2F4C2F562F68
:100E98000030AB000030AA000030A9000030A800E4
:100EA800DE2FDE2F2808AC002908AD002A08AE0086
:100EB80017300310AE0CAD0CAC0CFF3E031D5D2FBC
:100EC8002C08AF002F08B000A917FF30A805FF3085
:100ED800A9050030AA052808B1002908B2002A0887
:100EE800B300B4018E30B502B51F7B2F7C2FA12F24
:100EF8003508803A8F3E0318822F832F8E2F0030BB
:100F0800AB000030AA000030A9000030A800DE2F96
:100F1800DE2F8E2F01300310B40CB30CB20CB10CC1
:100F2800FF3E031D8F2F0130AC002C08B507031DB1
:100F38009E2F9F2F8E2FC52FC52F18303502031CCB
:100F4800A62FA72FBE2F0030AB000030AA0000301C
:100F5800A9000030A800DE2FDE2FBE2F0130AC0024
:100F68000310B10DB20DB30DB40DAC0BB42F01309D
:100F7800B502BE2FB508031DC22FC32FB22FC52F30
:100F8800C52F3008031DC92FD52FB109B209B309E0
:100F9800B409B10A0319B20A0319B30A0319B40A46
:100FA800D52F3408AB003308AA003208A90031084D
:100FB800A800DE2F080083120313A300A201231C3C
:100FC800E62FE72FEC2F2008A1002108A207EC2F1D
:100FD8000310A00D0310A30CA308031DF42FF52F75
:100FE800E32FF62F2208F82F0800EF34DF34BF3440
:040FF8007F34FF340F
:10100000FF1B0A2883137F1883170008840A03191B
:10101000FF0A080008308A000408840A82070034A6
:10102000203446347234653471343A342034003418
:1010300049346E3469347434693461346C34003446
:101040004B34653479343A342034003448347A34BB
:0210500000346A
:1015420083120313A80028080A128A15E8260A1231
:101552008A15080083120313380837043604031966
:10156200B32AB42AB72A8030B806B72AB82A0800A4
:101572003134323433344134343435343634423411
:1015820037343834393443342A343034233444340D
:1015920001300A128A1574270A128A150230831240
:1015A2000313A0000030A1000A128A152C230A128C
:1015B2008A150800CD34CC343D34003480343F34B5
:1015C2000034203441340034203442340034C834EE
:1015D200423400347A3444347E088A007F08820020
:1015E2000A128A15ED220A128A158000840A04085A
:1015F2007D0603190034FF0A0319FE0AF12A1A2B89
:10160200831203132908FF00280884000A128A158E
:1016120000200A128A150A128A15E8260A128A1569
:10162200013083120313A8070318A90A0030A9077F
:101632001A2B831203132908FF00280884000A12B8
:101642008A1500200A128A150038031D292B2A2B1D
:10165200012B2B2B080083120313A201A301542B8D
:10166200A401A50104302502B03003192402031C91
:101672003B2B3C2B3E2B4E2B4E2B0130A407031849
:10168200A50A0030A50704302502B0300319240250
:10169200031C4C2B4D2B3E2B4E2B0130A207031863
:1016A200A30A0030A30721082302031D5A2B200896
:1016B2002202031C5D2B5E2B312B5F2B0800323084
:1016C20083120313A0000030A1000A128A152C23F2
:1016D2000A128A1502300A128A1574270A128A150A
:1016E20028300A128A1574270A128A150C300A1237
:1016F2008A1574270A128A1506300A128A15742767
:101702000A128A1501300A128A1574270A128A15DA
:10171200023083120313A0000030A1000A128A15BE
:101722002C230A128A1508008E3083120313BD007F
:101732003D08BE00AA2B01300310BC0CBB0CBA0C36
:10174200B90CFF3E031D9D2B0130BD003D08BE07B5
:10175200AA2BFF303C05031DAF2BB02B9C2BB12BCA
:101762003908A0003A08A1003B08A2003E08BD00CB
:101772003D08A300A4010A128A15E1250A128A155E
:10178200831203132008B9002108BA002208BB0003
:10179200CA2B0800F501F601F701F801E501E6019F
:1017A200E701E80183160313EC01ED01EE01831753
:1017B200A030FD000A30FE00B930FF0090308400F6
:1017C2000A128A15F1220A128A158313EC30FD00DF
:1017D2000A30FE00DB30FF00DA3084000A128A157C
:1017E200F1220A128A156D30FD000730FE00F93031
:1017F200FF00693084000A128A15F1220A128A1542
:101802000A128A11FD270A128A15F90083010A12A7
:101812008A11F62A0B1D0E2C0F2C472C0B1181015D
:101822000130F507003003180130F60700300318C5
:101832000130F707003003180130F8076808780212
:10184200031D2D2C67087702031D2D2C66087602D6
:10185200031D2D2C65087502031C302C312C472CDE
:101862000030881D0130F000F00DF00DF00D080879
:101872007006F739700688000030F8000030F70073
:101882000030F6000030F500472C472C7408FF00AA
:1018920073088A0072088400710E8300FE0E7E0EA9
:1018A2000900003083120313AC000030AB0000309B
:1018B200AA000030A9005D2C201C602C612C792C20
:1018C2002408A907250803110318013E03196A2CED
:1018D200AA07260803110318013E0319712CAB074E
:1018E200270803110318013E0319782CAC07792C41
:1018F2000130A8000310A40DA50DA60DA70DA80B7D
:101902007B2C01300310A30CA20CA10CA00CFF3EF7
:10191200031D832C2308220421042004031D922C7E
:10192200932C5D2C942C2C08A3002B08A2002A08CF
:10193200A1002908A0009D2C08008312031323088C
:101942002204210420040319A72CA82CF22CA9019B
:101952000314A90DBA2C0130A8000310A00DA10D8B
:10196200A20DA30DA80BAE2C0130A8002808A907D0
:10197200BA2CA31FBD2CBE2CAC2CC02CC02C23080F
:101982002702031DCE2C22082602031DCE2C21087D
:101992002502031DCE2C20082402031CD12CD22C9C
:1019A200E12C2008A4022108031C210FA502220811
:1019B200031C220FA6022308031C230FA702E12CFB
:1019C20001300310A30CA20CA10CA00CFF3E031DBE
:1019D200E22C0130A902031DEF2CF02CC02CF22CBA
:1019E200F22C2708A3002608A2002508A10024083B
:1019F200A000FB2C0800003083120313AC0000305F
:101A0200AB000030AA000030A90023082204210400
:101A1200200403190D2D0E2D622DAD010314AD0D01
:101A2200202D0130A8000310A00DA10DA20DA30DC1
:101A3200A80B142D0130A8002808AD07202DA31FE4
:101A4200232D242D122D262D262D0130A800031022
:101A5200A90DAA0DAB0DAC0DA80B282D230827024A
:101A6200031D3D2D22082602031D3D2D21082502BE
:101A7200031D3D2D20082402031C402D412D512D14
:101A82002008A4022108031C210FA5022208031C1E
:101A9200220FA6022308031C230FA7022914512D8B
:101AA20001300310A30CA20CA10CA00CFF3E031DDD
:101AB200522D0130AD02031D5F2D602D262D622DAA
:101AC200622D2C08A3002B08A2002A08A1002908D5
:101AD200A0006B2D08008312031348084704460434
:101AE200031D742D752D802D0030E8000030E700B5
:101AF2000030E6000030E5008811E02DE02D4608B8
:101B0200B6004708B7004808B8000030B900803076
:101B1200BA003F30BB000A128A1171260A128A15D6
:101B2200831203133608C9003708CA003808CB00ED
:101B32000030B6000030B7004030B8004908B900A4
:101B42004A08BA004B08BB000A128A1171260A120F
:101B52008A15831203133608CC003708CD003808E3
:101B6200CE007030CF008930D0003830D1004C0820
:101B7200B9004D08BA004E08BB004F08B600500825
:101B8200B7005108B8000A128A1171260A128A1582
:101B9200831203133608A8003708A9003808AA00E0
:101BA2000A128A1139270A128A15831203132B0883
:101BB200E8002A08E7002908E6002808E5000800EE
:101BC200831203132308031DE72DEF2D220821049E
:101BD2002004031DED2DEE2D052EEF2D0030A0006B
:101BE2000030A1000030A2005D2E5D2E052E0130D6
:101BF200A5002508A30701300310A20CA10CA00C1C
:101C0200FF3E031DFD2D052EFE302205031D0A2E6B
:101C12000B2EF82D232E232E0130A5002508A30715
:101C22000130A007003003180130A107003003186B
:101C32000130A20701300310A20CA10CA00CFF3E40
:101C4200031D1C2EFF302205031D282E292E0D2ECA
:101C5200362E362E0130A30201300310A00DA10D45
:101C6200A20DFF3E031D2E2E362EA11F392E3A2E17
:101C72002B2E23183D2E3E2E442EFF30A0057F3002
:101C8200A105FF30A2050310A30C2308A500A6019D
:101C9200A70110300310A50DA60DA70DFF3E031DD1
:101CA2004B2E2508A0042608A1042708A204240814
:101CB200031D5C2E5D2EA2170800FF308312031352
:101CC200A6002608AC006C08AB006B08AA006A08E4
:101CD200A9006908A800AF0104302F02031C722E6C
:101CE200732E752EE52EE52E2F08283E84008313D1
:101CF2000008860000008312031306080F39A600AD
:101D02002608AE002E080F3A0319882E892EDA2EE5
:101D12000A30A0000030A1000A128A152C230A12F0
:101D22008A158312031306080F39A6002608AE008F
:101D32002E080F3A03199E2E9F2EDA2EB62EB62E9D
:101D4200AD01C42EAD010314AD0DC42E0230A600A8
:101D52002608AD00C42E0330A6002608AD00C42E0E
:101D6200FF30A6002608AD00C42E2E08073A03193C
:101D7200AC2E0C3A0319A72E063A0319A32E033AE6
:101D82000319A12EB12E2D08FF3A0319C92ECA2E0E
:101D9200DA2E2F08A60002300310A60DFF3E031D07
:101DA200CD2E2D082607A7002708AC00E52EDA2E37
:101DB200DA2E0130A6002608AF0704302F02031CDA
:101DC200E32EE42E752EE52E2C08E72E0800831252
:101DD2000313A7000814881008150030271A0130D1
:101DE200A600A60E08082606EF392606880000304F
:101DF200A71A0130A600A60EA60D08082606DF398E
:101E0200260688000030271B0130A600A60EA60D6C
:101E1200A60D08082606BF39260688000030A71B33
:101E22000130A600A60CA60C080826067F39260655
:101E320088000130A0000030A1000A128A152C236C
:101E42000A128A158312031308110130A000003010
:101E5200A1000A128A152C230A128A15831203136F
:101E62000815003027180130A600A60E080826061D
:101E7200EF39260688000030A7180130A600A60E0A
:101E8200A60D08082606DF39260688000030271925
:101E92000130A600A60EA60DA60D08082606BF391B
:101EA200260688000030A7190130A600A60CA60C51
:101EB200080826067F39260688000130A000003077
:101EC200A1000A128A152C230A128A1583120313FF
:101ED20008110230A0000030A1000A128A152C233A
:101EE2000A128A15080083120313A700081088102B
:101EF20008150030271A0130A600A60E080826068B
:101F0200EF39260688000030A71A0130A600A60E77
:101F1200A60D08082606DF39260688000030271B92
:101F22000130A600A60EA60DA60D08082606BF398A
:101F3200260688000030A71B0130A600A60CA60CBE
:101F4200080826067F39260688000130A0000030E6
:101F5200A1000A128A152C230A128A15831203136E
:101F620008110130A0000030A1000A128A152C23AA
:101F72000A128A158312031308150030271801303C
:101F8200A600A60E08082606EF39260688000030AD
:101F9200A7180130A600A60EA60D08082606DF39EE
:101FA20026068800003027190130A600A60EA60DCD
:101FB200A60D08082606BF39260688000030A71994
:101FC2000130A600A60CA60C080826067F392606B4
:101FD20088000130A0000030A1000A128A152C23CB
:101FE2000A128A158312031308110230A00000306E
:0E1FF200A1000A128A152C230A128A15080073
:02400E0029FF88
:00000001FF
