:0600000000308A00102808
:10000800FF000308F2000408F3000A08F4007E0861
:10001800F5000A128A1141280A128A1113280310BE
:10002800831603130030031801308800031083126D
:100038000313003003180130880083160313FF30C0
:100048008600811301170910831203130910073062
:10005800831603139F0083120313FC010314FC0D82
:100068008B170B168B158B100608F0007008FB0019
:100078000B103D280A128A111028831203138B1CB7
:100088004628472857280310003003180130FC0081
:10009800803088000A128A11AF200A128A1183124E
:1000A80003138B10A428FC08031D5B285C289D28DB
:1000B800FC010314FC0D7B080606F1007108FB0027
:1000C8007B08803A031D69286A286C280830880054
:1000D8007B08403A031D7128722874280430880070
:1000E8007B08203A031D79287A287C28023088006A
:1000F8007B08103A031D8128822884280130880053
:100108000A128A11AF200A128A110A128A11422190
:100118000A128A110A128A11AF200A128A110A12C7
:100128008A1142210A128A110A128A11AF200A1270
:100138008A11831203130608F1007108FB000B10E3
:100148007508FE0074088A0073088400720883002A
:10015800FF0E7F0E09002C30F6000130F700B4289E
:1001680001308312031389060A128A112D210A12FB
:100178008A110130F6020030031CF703F7027708F2
:100188007604031DC828C928B4282C30F60001308D
:10019800F700CE2801308312031389060A128A1148
:1001A80057210A128A110130F6020030031CF703A6
:1001B800F70277087604031DE228E328CE28643086
:1001C800F6000030F700E82801308312031389068F
:1001D8000A128A1142210A128A110130F6020030ED
:1001E800031CF703F70277087604031DFC28FD2893
:1001F800E8286430F6000030F70002290130831245
:10020800031389060A128A1118210A128A11013069
:10021800F6020030031CF703F70277087604031D83
:1002280016291729022908000B30F9001B29193053
:10023800F8001E290130F802F808031D2429252991
:100248001E290130F902F908031D2B292C291B2925
:1002580008000330F90030291930F800332901303B
:10026800F802F808031D39293A2933290130F9021F
:10027800F908031D40294129302908000F30F900E9
:1002880045291930F80048290130F802F808031DFB
:100298004E294F2948290130F902F908031D55292B
:1002A8005629452908000730F9005A291930F8005D
:1002B8005D290130F802F808031D632964295D29C6
:1002C8000130F902F908031D6A296B295A29080027
:02400E0029FF88
:00000001FF
