:060000000A128A11122809
:10000800FE00030EF1000408F2000A08F300831250
:1000180003137F08F4000A128A15532E0A128A1550
:10002800232E831603138801850107309F000A12C7
:100038008A15AF250A128A1101308312031388002A
:100048000A128A1580250A128A113830831203137E
:1000580088000A128A1580250A128A110C30831228
:10006800031388000A128A1580250A128A1106309D
:100078008312031388000A128A1580250A128A112E
:10008800FF30831603138700FF30831203138700A2
:100098001930831603139900243098009030831286
:1000A800031398008B170B17831603138C165C2801
:1000B800831603132108533A031D63286428A528CF
:1000C8002008553A031D69286A28A528DA01DB01AA
:1000D8005B08803AFF0080307F02031D75280B30D3
:1000E8005A02031C782879287B28A528A528831676
:1000F80003135A08A03E84008313000883120313D5
:10010800CE00831603135A08B43E840083120313E7
:100118004E088000013083160313DA070318DB0A40
:100128000030DB075B08803AFF0080307F02031D48
:100138009F280B305A02031CA228A3287B28A52835
:10014800A52883160313360883120313CE00CF01A4
:1001580083160313370883120313D000D101500804
:10016800D100D0014E085004DE004F085104DF00D2
:100178005F08BA01BA075E08B901B9070A128A15F9
:10018800F7250A128A11831203133908D5003A0891
:10019800D6003B08D7000A128A11C7220A128A1110
:1001A80080308312031388000A128A1580250A12E8
:1001B8008A1152308312031388000A128A158E2579
:1001C8000A128A1101308312031364066504031DA1
:1001D800EE28EF28F7282D3088000A128A158E2578
:1001E8000A128A11012920308312031388000A1287
:1001F8008A158E250A128A110129831203136608AB
:10020800CA3E84008313000888000A128A158E25C6
:100218000A128A11831203136808CA3E84008313E2
:10022800000888000A128A158E250A128A1183127C
:1002380003136A08CA3E84008313000888000A1260
:100248008A158E250A128A112E308312031388000C
:100258000A128A158E250A128A11831203136C0852
:10026800CA3E84008313000888000A128A158E2566
:100278000A128A11831203136E08CA3E840083137C
:10028800000888000A128A158E250A128A11203061
:100298008312031388000A128A158E250A128A11FE
:1002A80083160313380883120313CE00CF01831675
:1002B8000313390883120313D000D1015008D10069
:1002C800D0014E085004E0004F085104E1006108D5
:1002D800BA01BA076008B901B9070A128A15F725E1
:1002E8000A128A11831203133908D5003A08D60076
:1002F8003B08D7000A128A11C7220A128A11503005
:100308008312031388000A128A158E250A128A118D
:1003180001308312031364066504031D942995298B
:100328009D292D3088000A128A158E250A128A11F5
:10033800A72920308312031388000A128A158E25F4
:100348000A128A11A729831203136608CA3E840079
:100358008313000888000A128A158E250A128A114A
:10036800831203136808CA3E8400831300088800B8
:100378000A128A158E250A128A11831203136A0833
:10038800CA3E84008313000888000A128A158E2545
:100398000A128A112E308312031388000A128A1552
:1003A8008E250A128A11831203136C08CA3E840030
:1003B8008313000888000A128A158E250A128A11EA
:1003C800831203136F0883160313C901C907831225
:1003D80003136E0883160313C801C807203083125D
:1003E800031388000A128A158E250A128A118316A9
:1003F80003133A0883120313CE00CF0183160313A5
:100408003B0883120313D000D1015008D100D0015A
:100418004E085004E2004F085104E3006308BA0193
:10042800BA076208B901B9070A128A15F7250A122C
:100438008A11831203133908D5003A08D6003B08FD
:10044800D7000A128A11C7220A128A11C0308312F1
:10045800031388000A128A1580250A128A11593056
:100468008312031388000A128A158E250A128A112C
:1004780001308312031364066504031D442A452AC8
:100488004D2A2D3088000A128A158E250A128A11E3
:10049800572A20308312031388000A128A158E25E2
:1004A8000A128A11572A831203136608CA3E840067
:1004B8008313000888000A128A158E250A128A11E9
:1004C800831203136808CA3E840083130008880057
:1004D8000A128A158E250A128A11831203136A08D2
:1004E800CA3E84008313000888000A128A158E25E4
:1004F8000A128A112E308312031388000A128A15F1
:100508008E250A128A11831203136C08CA3E8400CE
:100518008313000888000A128A158E250A128A1188
:10052800831203136E08CA3E8400831300088800F0
:100538000A128A158E250A128A1120308312031393
:1005480088000A128A158E250A128A11CF30831262
:10055800031388000A128A1580250A128A11831645
:1005680003134808CA3E8400831300088312031348
:1005780088000A128A158E250A128A115C285C28BE
:100588000A128A111228831203135508A00056086C
:10059800A1005708A2000030A3000030A4000030DA
:1005A800A5000A128A159F260A128A110318DD2A45
:1005B800DE2AF82A013083120313E4000030E50034
:1005C8005508A8005608A9005708AA000A128A1553
:1005D80072250A128A11831203132808D5002908E4
:1005E800D6002A08D700FD2A83120313E401E50187
:1005F800FD2A0030B9000030BA004730BB00A030F7
:10060800A8008C30A9004630AA005508AB0056084F
:10061800AC005708AD000A128A1192250A128A11F5
:10062800831203132808BC002908BD002A08BE004D
:100638000A128A1180260A128A11831203133908B2
:10064800D2003A08D3003B08D4005208BC00530833
:10065800BD005408BE004030B9001C30BA00463016
:10066800BB000A128A1180260A128A118312031308
:100678003908AB003A08AC003B08AD000A128A11F1
:1006880048270A128A11831203132C08E701E70787
:100698002B08E601E6071030A2002730A300670800
:1006A800A101A1076608A001A0070A128A15CB2597
:1006B8000A128A11831203132108BA01BA07200803
:1006C800B901B9070A128A15F7250A128A11831285
:1006D80003133908A8003A08A9003B08AA000A121F
:1006E8008A1572250A128A11831203132808C20078
:1006F8002908C3002A08C4005208BF005308C000D4
:100708005408C1000A128A114C240A128A11831251
:1007180003133F08AB004008AC004108AD000A12C3
:100728008A1148270A128A11831203132C08D90147
:10073800D9072B08D801D807E830A0000330A1005A
:100748005908A301A3075808A201A2070A128A158B
:100758000D270A128A11831203132108E901E907F8
:100768002008E801E8076908A101A1076808A001B5
:10077800A007E830A2000330A3000A128A15CB258F
:100788000A128A11831203132009CC002109CD0013
:10079800CC0A0319CD0A58084C07DA00590803187F
:1007A800590A4D07DB006430A0000030A1005B0847
:1007B800A301A3075A08A201A2070A128A150D2746
:1007C8000A128A11831203132108EB01EB07200890
:1007D800EA01EA076B08A101A1076A08A001A007BE
:1007E8006430A2000030A3000A128A15CB250A1231
:1007F8008A11831203132009CC002109CD00CC0AE9
:100808000319CD0A5A084C07DC005B0803185B0A79
:100818004D07DD000A30A0000030A1005D08A301EB
:10082800A3075C08A201A2070A128A150D270A125B
:100838008A11831203132108ED01ED072008EC014A
:10084800EC076D08A101A1076C08A001A0070A30F8
:10085800A2000030A3000A128A15CB250A128A11B9
:10086800831203132009CC002109CD00CC0A0319F7
:10087800CD0A5C084C07F5005D0803185D0A4D07B2
:10088800F6007608EF01EF077508EE01EE0708009D
:10089800831203133F08C5004008C6004108C7007B
:1008A8000310460D470DC8004808CB004208C50094
:1008B8004308C6004408C7000310460D470DC8008A
:1008C8004808CA004B08031D6A2C7B2C4A084B02B7
:1008D80003186F2C702C832C4B03FF3A4A07C50072
:1008E80019304502031C792C7A2C832C7B2C420866
:1008F800BF004308C0004408C100912D912D4A084B
:10090800031D872C972C4B084A0203188C2C8D2C1E
:10091800982C4A03FF3A4B07C50019304502031CBF
:10092800962C972C982C912D0630C5004508C900A7
:10093800C11F9F2CA02CA12CC917C41FA42CA52C07
:10094800A62C4917C017FF30BF05FF30C00500307F
:10095800C105C317FF30C205FF30C3050030C40509
:100968004A084B020318B92CBA2CEB2CBB2C0130CB
:100978000310C20DC30DC40DFF3E031DBC2C013076
:10098800CA024A084B060319CA2CCB2CE32C0130A7
:10099800C90249080739031DD22CD32CBB2CE32CE0
:1009A800E32CE32C01300310C10CC00CBF0CFF3E3C
:1009B800031DD72C0130C5004508CB07E32C4B0895
:1009C8004A06031DE82CE92CD62C222D222D4B0893
:1009D8004A020318F02CF12C222DF22C01300310BE
:1009E800BF0DC00DC10DFF3E031DF32C0130CB021E
:1009F8004A084B060319012D022D1A2D0130C90290
:100A080049080739031D092D0A2DF22C1A2D1A2D14
:100A18001A2D01300310C40CC30CC20CFF3E031D79
:100A28000E2D0130C5004508CA071A2D4B084A0685
:100A3800031D1F2D202D0D2D222D222DC91F252DE3
:100A4800262D372DFF30BF06FF30C006FF30C10608
:100A58000130BF07003003180130C0070030031809
:100A68000130C107372D491F3A2D3B2D4C2DFF3042
:100A7800C206FF30C306FF30C4060130C20700308B
:100A880003180130C307003003180130C4074C2D88
:100A9800C9013F08C207400803110318400A031997
:100AA800562DC307410803110318410A03195D2D88
:100AB800C407C41F602D612D752DFF30C206FF309D
:100AC800C306FF30C4060130C207003003180130E6
:100AD800C307003003180130C407C9010314C90D46
:100AE800752D4208A0004308A1004408A2004B0845
:100AF800C5004508A3004908C6004608A4000A1214
:100B08008A1583270A128A11831203132008BF004B
:100B18002108C0002208C100912D08008312031388
:100B28002808AE002908AF002A08B00003102F0DCE
:100B3800300DB1003108B200B208031DA42DA52D57
:100B4800AD2D0030A8000030A9000030AA007F2E8B
:100B58007F2E2B08AE002C08AF002D08B000031024
:100B68002F0D300DB1003108B700B708031DBD2D9A
:100B7800BE2DC62D0030A8000030A9000030AA0004
:100B88007F2E7F2E37087B3EAE002E08B20728083E
:100B9800AE002908AF002A08B00010300310B00CCE
:100BA800AF0CAE0CFF3E031DD22D2E08B10031084C
:100BB800B7002B08AE002C08AF002D08B00010308D
:100BC8000310B00CAF0CAE0CFF3E031DE42D2E0835
:100BD800B1003108B7068030AE002E08B705A91756
:100BE800AC17FF30AB05FF30AC050030AD05003069
:100BF800B3000030B4000030B5000730AE002E0856
:100C0800B600062E281C092E0A2E1B2E2B08B30709
:100C18002C08031103182C0A0319132EB4072D08E6
:100C2800031103182D0A03191A2EB5071B2E0130BC
:100C38000310AA0CA90CA80CFF3E031D1C2E0130A2
:100C48000310AB0DAC0DAD0DFF3E031D242E01307E
:100C5800B602031D302E312E062E322E0930AE007C
:100C68002E08B600372E281C3A2E3B2E4C2E2B0869
:100C7800B3072C08031103182C0A0319442EB407D0
:100C88002D08031103182D0A03194B2EB5074C2EF6
:100C980001300310AA0CA90CA80CFF3E031D4D2E11
:100CA80001300310B50CB40CB30CFF3E031D552ED8
:100CB8000130B602031D612E622E372E632E3308D3
:100CC800A0003408A1003508A2003208AE002E08A2
:100CD800A3003708AF002F08A4000A128A1583273B
:100CE8000A128A11831203132008A8002108A900F8
:100CF8002208AA007F2E0800831203133C08BF00B5
:100D08003D08C0003E08C1000310400D410DC2005F
:100D18004208C700C708031D922E932E9B2E003051
:100D2800B9000030BA000030BB00472F472F390800
:100D3800BF003A08C0003B08C1000310400D410D38
:100D4800C2004208C800C808031DAB2EAC2EB42E42
:100D58000030B9000030BA000030BB00472F472FE1
:100D68000030C4000030C5000030C6008930480794
:100D7800BF003F08C7023C08BF003D08C0003E084E
:100D8800C10010300310C10CC00CBF0CFF3E031D86
:100D9800C62E3F08C2004208C8003908BF003A08FA
:100DA800C0003B08C10010300310C10CC00CBF0CC0
:100DB800FF3E031DD82E3F08C2004208C8068030F7
:100DC800BF003F08C805BD17FF30BC05FF30BD0593
:100DD8000030BE05BA17FF30B905FF30BA0500303C
:100DE800BB051830BF003F08C300FA2E01300310BE
:100DF800C40DC50DC60DFF3E031DFB2E3B083E026C
:100E0800031D0C2F3A083D02031D0C2F39083C0224
:100E1800031C0F2F102F1C2F3908BC023A08031C83
:100E28003A0FBD023B08031C3B0ABE0244141C2FA8
:100E380001300310BC0DBD0DBE0DFF3E031D1D2F5F
:100E48000130C302031D292F2A2FFA2E2B2F440805
:100E5800A0004508A1004608A2004708BF003F08B7
:100E6800A3004808C0004008A4000A128A15832776
:100E78000A128A11831203132008B9002108BA0044
:100E88002208BB00472F0800831203132B08AF006A
:100E98002C08B0002D08B1000310300D310DB20040
:100EA8003208B800B808031D5A2F5B2F652F003091
:100EB800AE000030AD000030AC000030AB00ED2FCC
:100EC800ED2F2B08AF002C08B0002D08B10017300B
:100ED8000310B10CB00CAF0CFF3E031D6C2F2F0894
:100EE800B2003208B300AC17FF30AB05FF30AC05D9
:100EF8000030AD052B08B4002C08B5002D08B6004D
:100F0800B7018E30B802B81F8A2F8B2FB02F380840
:100F1800803A8F3E0318912F922F9D2F0030AE00FC
:100F28000030AD000030AC000030AB00ED2FED2FED
:100F38009D2F01300310B70CB60CB50CB40CFF3E56
:100F4800031D9E2F0130AF002F08B807031DAD2FDA
:100F5800AE2F9D2FD42FD42F18303802031CB52F55
:100F6800B62FCD2F0030AE000030AD000030AC0001
:100F78000030AB00ED2FED2FCD2F0130AF00031067
:100F8800B40DB50DB60DB70DAF0BC32F0130B802B8
:100F9800CD2FB808031DD12FD22FC12FD42FD42F76
:100FA8003308031DD82FE42FB409B509B609B709CA
:100FB800B40A0319B50A0319B60A0319B70AE42FC4
:100FC8003708AE003608AD003508AC003408AB0071
:100FD800ED2F08003034313432343334343435347E
:100FE8003634373438343934413442344334443471
:040FF8004534463402
:101AD40064008001840A04060319003404066B2D93
:101AE400831203132A082904280403197A2D7B2D51
:101AF4007E2D8030AA067E2D7F2D080083120313CD
:101B04008512051285110A128A15AF250A128A1543
:101B14008312031385150800831203138516051217
:101B240085110A128A15AF250A128A158312031326
:101B3400851508007E088A007F0882000A128A152B
:101B44009C250A128A158000840A04087D0603195C
:101B54000034FF0A0319FE0AA02DE7308312031391
:101B6400A0000330A10021082004031DBA2DBB2DC1
:101B7400BD2DCA2DCA2D0130A0020030031CA103C3
:101B8400A10221082004031DC82DC92DBD2DCA2D75
:101B9400080083120313A401A501D02D201CD32D0A
:101BA400D42DDA2D2208A4070318A50A2308A507B3
:101BB40001300310A20DA30DFF3E031DDB2D0130E8
:101BC4000310A10CA00CFF3E031DE22D21082004EC
:101BD400031DED2DEE2DD02DEF2D2508A101A1071C
:101BE4002408A001A007F62D080083120313BE01E8
:101BF400BA1FFD2DFE2D072EB909BA09B90A03191A
:101C0400BA0ABE010314BE0D072E3908A0003A0813
:101C1400A100A2018E30BC003C08A3003E08BD0018
:101C24003D08A4000A128A1583270A128A15831212
:101C340003132008B9002108BA002208BB00222E91
:101C44000800F501F601F701F8018313523084000E
:101C540070300A128A156A250A128A15A030840087
:101C6400CA300A128A156A250A128A158317903017
:101C74008400EA300A128A156A250A128A15831327
:101C8400DA30FD000730FE00EE30FF00CA30840079
:101C94000A128A15A0250A128A1583010A128A11CA
:101CA40015281A08F0007708A03E840070088313F2
:101CB4008000831603132008553A0319622E632EFD
:101CC400662EF701F801662E7708B43E84000008FA
:101CD4008312031399006E2E83160313981C732E1C
:101CE400742E6E2E752E2008553A031D7A2E7B2EE7
:101CF400822E0130F7070318F80A0030F807822E05
:101D04007808803AFF0080307F02031D8B2E0B3051
:101D14007702031C8E2E8F2E922EF701F801922E3D
:101D2400740883120313FF0073088A007208840086
:101D3400710E8300FE0E7E0E090083120313A21F90
:101D4400A42EA52ECB2E0030A6000030A700803094
:101D5400A8002009A9002109AA002209AB00A90AA8
:101D64000319AA0A0319AB0A2908A6072A080318A3
:101D74002A0FBD2EBE2EA7072B0803182B0FC32E28
:101D8400C42EA8072608A0002708A1002808A2003E
:101D9400CB2EA51FCE2ECF2EF52E0030A600003060
:101DA400A7008030A8002309A9002409AA00250956
:101DB400AB00A90A0319AA0A0319AB0A2908A60742
:101DC4002A0803182A0FE72EE82EA7072B08031862
:101DD4002B0FED2EEE2EA8072608A3002708A4003B
:101DE4002808A500F52E8030A2068030A506250817
:101DF4002202031D032F24082102031D032F23089D
:101E040020020318062F072F092F03100C2F031489
:101E14000C2F0C2F080083120313A601A11F132FEC
:101E2400142F1D2FA009A109A00A0319A10AA601B4
:101E34000314A60D1D2FA31F202F212F2B2FA20922
:101E4400A309A20A0319A30A0130A4002408A606C0
:101E54002B2FA701A801210820040319322F332FA7
:101E6400712FA5010314A50D432F01300310A00DFC
:101E7400A10DFF3E031D382F0130A4002408A5073F
:101E8400432FA11F462F472F372F492F492F0130AA
:101E94000310A70DA80DFF3E031D4A2F210823029E
:101EA400031D562F20082202031C592F5A2F622F7C
:101EB4002008A2022108031CA303A3022714622FF3
:101EC40001300310A10CA00CFF3E031D632F013051
:101ED400A502031D6E2F6F2F492F712F712F260816
:101EE400031D752F7B2FA709A809A70A0319A80AA0
:101EF4007B2F2808A101A1072708A001A007822F92
:101F04000800831203132308031D892F912F22082D
:101F140021042004031D8F2F902FA72F912F003011
:101F2400A0000030A1000030A200FF2FFF2FA72F38
:101F34000130A5002508A30701300310A20CA10C51
:101F4400A00CFF3E031D9F2FA72FFE302205031D6B
:101F5400AC2FAD2F9A2FC52FC52F0130A500250812
:101F6400A3070130A007003003180130A107003097
:101F740003180130A20701300310A20CA10CA00C1D
:101F8400FF3E031DBE2FFF302205031DCA2FCB2F9A
:101F9400AF2FD82FD82F0130A30201300310A00D8A
:101FA400A10DA20DFF3E031DD02FD82FA11FDB2FA3
:101FB400DC2FCD2F2318DF2FE02FE62FFF30A005D5
:101FC4007F30A105FF30A2050310A30C2308A50050
:101FD400A601A70110300310A50DA60DA70DFF3E05
:101FE400031DED2F2508A0042608A1042708A20438
:0C1FF4002408031DFE2FFF2FA217080079
:02400E0029FF88
:00000001FF
