:060000000A128A11122809
:10000800FE00030EF6000408F7000A08F800831241
:1000180003137F08F9000A128A11112B0A128A1198
:10002800C22D003083120313A3000130A2008630D2
:10003800A100A030A0004608A7004508A600440873
:10004800A5004308A4000A128A1112240A128A1170
:10005800831203132008AF002F08D5004308AF0010
:100068004408B0004508B1004608B2005508B3007E
:10007800B401B501B6013608A3003508A20034085A
:10008800A1003308A0000030A7000130A600863088
:10009800A500A030A4000A128A11EA240A128A11C3
:1000A800831203132009B7002109B8002209B900F7
:1000B8002309BA00B70A0319B80A0319B90A0319B8
:1000C800BA0A3708AF0738080318380F6C286D28A4
:1000D800B00739080318390F72287328B1073A088E
:1000E80003183A0AB2073208BE003108BD003008CA
:1000F800BC002F08BB000030A3000030A20027304E
:10010800A1001030A0003E08A7003D08A6003C084A
:10011800A5003B08A4000A128A1169220A128A1152
:10012800831203132008AF002F08CB004B08AF0041
:10013800B0012F08A0003008A1001030A20027301D
:10014800A3000A128A1171250A128A118312031355
:100158002009B1002109B200B10A0319B20A3B080B
:100168003107C0003C0803183C0A3207C100E830D8
:10017800A0000330A1004108A301A3074008A20181
:10018800A2070A128A119C230A128A1183120313E6
:100198002008AF002F08CC004C08AF00B0012F0892
:1001A800A0003008A100E830A2000330A3000A1222
:1001B8008A1171250A128A11831203132009B100CA
:1001C8002109B200B10A0319B20A40083107C00078
:1001D80041080318410A3207C1006430A00000300A
:1001E800A1004108A301A3074008A201A2070A121F
:1001F8008A119C230A128A11831203132008AF0064
:100208002F08D6006430AF002F08A00056080A1245
:100218008A11FA250A128A11FF3A013E8312031342
:100228004007B0003008BF000A30A0000030A1002D
:100238003F08AF00B0012F08A2003008A3000A123F
:100248008A119C230A128A11831203132008B10011
:100258003108CE000A30AF002F08A0004E080A125D
:100268008A11FA250A128A11FF3A013E83120313F2
:100278003F07B0003008D000080083160313880138
:1002880085010A128A11DE250A128A1101308312A9
:10029800031388000A128A1135260A128A11383087
:1002A8008312031388000A128A1135260A128A114A
:1002B8000C308312031388000A128A1135260A1299
:1002C8008A1106308312031388000A128A11352610
:1002D8000A128A1100300A128A119D250A128A11FF
:1002E80083120313C2004208C30001300A128A11A4
:1002F8009D250A128A1183120313C2004208C40002
:1003080002300A128A119D250A128A1183120313D8
:10031800C2004208C500FA30C2004208D200C90132
:10032800CA0183160313061483120313C701C801F5
:10033800831603130510831203130910831603137E
:100348000910473081000B118312031381018B17A9
:100358000B168B10AF290A128A1115200A128A115E
:1003680080308312031388000A128A1135260A1274
:100378008A11831203135508583E8400831300081A
:1003880088000A128A1127260A128A118312031377
:100398004B08583E84008313000888000A128A110B
:1003A80027260A128A11831203134C08583E840028
:1003B8008313000888000A128A1127260A128A1154
:1003C800831203135608583E8400831300088800DC
:1003D8000A128A1127260A128A11831203134E0859
:1003E800583E84008313000888000A128A112726C1
:1003F8000A128A11831203135008583E840083138B
:10040800000888000A128A1127260A128A11831204
:1004180003134508C2004208A00002300A128A11DC
:1004280036250A128A11831203134408C2004208AF
:10043800A00001300A128A1136250A128A11831285
:1004480003134308C2004208A00000300A128A11B0
:1004580036250A128A110A128A1182240A128A116E
:10046800C0308312031388000A128A1135260A1233
:100478008A11831203134D08583E84008313000821
:1004880088000A128A1127260A128A118312031376
:100498004F08583E84008313000888000A128A1106
:1004A80027260A128A11831203135108583E840022
:1004B8008313000888000A128A1127260A128A1153
:1004C800AF29AF290A128A11122883120313AA012D
:1004D800A31F6F2A702A7F2AA009A109A209A309CC
:1004E800A00A0319A10A0319A20A0319A30AAA0157
:1004F8000314AA0D7F2AA71F822A832A932AA409F4
:10050800A509A609A709A40A0319A50A0319A60A91
:100518000319A70A0130A8002808AA06932A003060
:10052800AE000030AD000030AC000030AB00230856
:100538002204210420040319A22AA32AF72AA901C4
:100548000314A90DB52A0130A8000310A00DA10DB0
:10055800A20DA30DA80BA92A0130A8002808A907F5
:10056800B52AA31FB82AB92AA72ABB2ABB2A013051
:10057800A8000310AB0DAC0DAD0DAE0DA80BBD2A38
:1005880023082702031DD22A22082602031DD22A85
:1005980021082502031DD22A20082402031CD52A7B
:1005A800D62AE62A2008A4022108031C210FA50246
:1005B8002208031C220FA6022308031C230FA702EC
:1005C8002B14E62A01300310A30CA20CA10CA00CDA
:1005D800FF3E031DE72A0130A902031DF42AF52A6C
:1005E800BB2AF72AF72A2A08031DFB2A072BAB097F
:1005F800AC09AD09AE09AB0A0319AC0A0319AD0A77
:100608000319AE0A072B2E08A3002D08A2002C08F8
:10061800A1002B08A000102B08000B1D142B152B74
:100628001D2B0130C9070318CA0A0030CA070B116D
:10063800912B0130C7070318C80A0030C8070230D9
:100648004806031D292BE4304706031D2C2B2D2BB0
:100658003E2B0130C307003003180130C4070030B7
:1006680003180130C507003003180130C607C70159
:10067800C8013E2B00304606031D4C2B09304506A9
:10068800031D4C2B27304406031D4C2BC03043065A
:10069800031D4F2B502B532B0B120914532B0130D6
:1006A800F0007008D207D208031D5B2B5C2B652B6A
:1006B800C901CA010108F0007008FA008B160B1175
:1006C800652B5208013A031D6A2B6B2B8F2B0108EF
:1006D800F0007008FB008B127A08F000F101F009B5
:1006E800F109F00A0319F10A4A08F3004908F2006F
:1006F8007208F300F2017B087207F400730803180C
:10070800730AF50070087407D30071080318710A9A
:100718007507D4008F2B8B10912B7908FF00780870
:100728008A0077088400760E8300FE0E7E0E09008C
:1007380083120313A601A11FA22BA32BAC2BA00984
:10074800A109A00A0319A10AA6010314A60DAC2B3E
:10075800A31FAF2BB02BBA2BA209A309A20A031916
:10076800A30A0130A4002408A606BA2BA701A801F1
:10077800210820040319C12BC22B002CA501031446
:10078800A50DD22B01300310A00DA10DFF3E031DB6
:10079800C72B0130A4002408A507D22BA11FD52BF5
:1007A800D62BC62BD82BD82B01300310A70DA80D9C
:1007B800FF3E031DD92B21082302031DE52B20082A
:1007C8002202031CE82BE92BF12B2008A2022108A6
:1007D800031CA303A3022714F12B01300310A10C5F
:1007E800A00CFF3E031DF22B0130A502031DFD2BBB
:1007F800FE2BD82B002C002C2608031D042C0A2CB9
:10080800A709A809A70A0319A80A0A2C2808A101F8
:10081800A1072708A001A007112C080000308312A7
:100828000313AC000030AB000030AA000030A90070
:1008380023082204210420040319232C242C782CB7
:10084800AD010314AD0D362C0130A8000310A00D26
:10085800A10DA20DA30DA80B2A2C0130A800280871
:10086800AD07362CA31F392C3A2C282C3C2C3C2CB9
:100878000130A8000310A90DAA0DAB0DAC0DA80BF3
:100888003E2C23082702031D532C22082602031D91
:10089800532C21082502031D532C20082402031C75
:1008A800562C572C672C2008A4022108031C210F62
:1008B800A5022208031C220FA6022308031C230FEB
:1008C800A7022914672C01300310A30CA20CA10C59
:1008D800A00CFF3E031D682C0130AD02031D752CD2
:1008E800762C3C2C782C782C2C08A3002B08A20002
:1008F8002A08A1002908A000812C080083120313EC
:100908005408A101A1075308A001A0073630A2008E
:100918004A30A3000A128A119C230A128A118312F0
:1009280003132008A9002908D7006430A00000306C
:10093800A1005708A900AA012908A2002A08A300B3
:100948000A128A119C230A128A118312031320089F
:10095800AB002B08CD006430A9002908A0004D0881
:100968000A128A11FA250A128A11FF3A013E8312E5
:1009780003135707AA002A08AC000A30A000003069
:10098800A1002C08A900AA012908A2002A08A3008E
:100998000A128A119C230A128A118312031320084F
:1009A800AB002B08CF000A30A9002908A0004F0887
:1009B8000A128A11FA250A128A11FF3A013E831295
:1009C80003132C07AA002A08D1000800003083125C
:1009D8000313AC000030AB000030AA000030A900BF
:1009E800F52C201CF82CF92C112D2408A907250812
:1009F80003110318013E0319022DAA072608031143
:100A08000318013E0319092DAB0727080311031822
:100A1800013E0319102DAC07112D0130A800031059
:100A2800A40DA50DA60DA70DA80B132D01300310BD
:100A3800A30CA20CA10CA00CFF3E031D1B2D230828
:100A4800220421042004031D2A2D2B2DF52C2C2DE6
:100A58002C08A3002B08A2002A08A1002908A0003E
:100A6800352D080083120313A2003A2D83160317AD
:100A78008C183F2D402D3A2D412D83120313220847
:100A8800831203178D0083120313200883120317A0
:100A98008C003F3083120313A1002108831603172B
:100AA8008C058312031303108B1F5B2D5C2D5D2DAA
:100AB80003148B13831603170C1555308D00AA30B9
:100AC8008D008C140C1183120313031C6C2D6D2DD7
:100AD800702D8B17702D702D080083120313A4013D
:100AE800A501762D201C792D7A2D802D2208A407AA
:100AF8000318A50A2308A50701300310A20DA30DAA
:100B0800FF3E031D812D01300310A10CA00CFF3EF8
:100B1800031D882D21082004031D932D942D762D67
:100B2800952D2508A101A1072408A001A0079C2D47
:100B3800080083120313A1006400831603178C189E
:100B4800A62DA72DA02DA82D8312031321088312EB
:100B580003178D003F3083120313A000200883166B
:100B680003178C050C1403100C1803140030031819
:100B78000130831203170C08C12D0800FA01FB018C
:100B880083134330840058300A128A114D260A1202
:100B98008A116230FD000630FE004330FF005830F5
:100BA80084000A128A1118260A128A1183010A126D
:100BB8008A114129E73083120313A0000330A100F2
:100BC80021082004031DE92DEA2DEC2DF92DF92D1E
:100BD8000130A0020030031CA103A1022108200457
:100BE800031DF72DF82DEC2DF92D080083120313A2
:100BF800A300A201231C012E022E072E2008A1000B
:100C08002108A207072E0310A00D0310A30CA308A8
:100C1800031D0F2E102EFE2D112E2208132E080054
:100C28007E088A007F0882000A128A1114260A1296
:100C38008A118000840A04087D0603190034FF0A1B
:100C48000319FE0A182E831203138516051285113F
:100C58000A128A11DE250A128A11831203138515D6
:100C68000800831203138512051285110A128A11CE
:100C7800DE250A128A118312031385150800303401
:100C88003134323433343434353436343734383418
:100C9800393464008001840A040603190034040608
:020CA8004E2ECE
:02400E0029FF88
:10420000B0002700090000000000000000000000CE
:00000001FF
