:10000000830100308A001D28FC0003088301E300FF
:100010000A08E4008A0183010D100C1F0D281E0838
:10002000A00083161E088312A1000C1364088A0026
:1000300063088300FC0E7C0E0900203084003C30F5
:10004000312083010730E200DB30E1003C308400E6
:100050006130352083010A128A11982D040680012F
:10006000840A0406031D2E280034F0000A128A11A7
:1000700045200A128A118000840A040870060319B8
:100080000034362883120313E100E21B5028621B60
:10009000582862088A006108E10A0319E20A82000E
:1000A0008313621883176108E10A840000080800BE
:10095400F0000030711870070310F00D0310F10C53
:10096400F10803190800AC2CF401F5010310F30C91
:10097400F20C031CC42C7008F40771080318710AE4
:10098400F5070310F00DF10D720873040319003418
:10099400B82C83012008AD00AC0121082C07AA0063
:1009A4002D0803182D0AAB005030F400C330F500B5
:1009B400F601F7012B08F1002A08F000F201F30117
:1009C4000A128A119E277008B6007108B7007208CF
:1009D400B8007308B900FF30F4000330F500F601E5
:1009E400F7013608F0003708F1003808F20039083A
:1009F400F3000A128A11FA267008B2007108B300D3
:100A04007208B4007308B5001030F4002730F50004
:100A1400F601F7013208F0003308F1003408F2005F
:100A24003508F3000A128A11FA267008A200103061
:100A3400F2002730F3002208F000F1010A128A11B3
:100A4400B6243308F1003208F0007408F002031CE5
:100A5400F1037508F1027008AE007108AF00E830C8
:100A6400F2000330F3002F08F1002E08F0000A1200
:100A74008A11C0267408A300E830F2000330F300A2
:100A84002308F000F1010A128A11B6242F08F1009C
:100A94002E08F0007408F002031CF1037508F1023B
:100AA4007008B0007108B1006430F200F30131083D
:100AB400F1003008F0000A128A11C0267408A4005C
:100AC4006430F10024080A128A11AA243002A70013
:100AD4000A30F10027080A128A118A26A5000A3072
:100AE400F10025080A128A11AA240A128A1127027F
:100AF400A6000800CF308301BA000730BB00BA0853
:100B04000319BB03BA033B083A0403190800812DF7
:100B140083018512051285117C2585150800830142
:100B24008516051285117C25851508008316031387
:100B34008801013085008E309F00831288017C2556
:100B4400013088008A250A128A11383088008A25E3
:100B54000A128A110C3088008A250A128A1106307A
:100B640088008A250A128A1141309F009E0183164B
:100B74009E01C03087000C309900243098009030DA
:100B840083129800303090008F018E010B309D004D
:100B9400FF309C009B0083160D140B178B170C174A
:100BA40083121014AC01AD01E12D2C084C3E8400DD
:100BB4008313000899007C25AC0A0319AD0A0030A0
:100BC4002D02153003192C02031CD72DCB240A1235
:100BD4008A11803088008A250A128A1120083C3E36
:100BE400840083130008880091250A128A11210EBB
:0C0BF4000F393C3E840083130008880089
:100C000091250A128A1121080F393C3E8400831372
:100C10000008880091250A128A1148308800912521
:100C20000A128A11C03088008A250A128A11220805
:100C30003C3E840083130008880091250A128A1123
:100C40002E30880091250A128A1123083C3E840028
:100C500083130008880091250A128A1124083C3E5B
:100C6000840083130008880091250A128A11250840
:100C70003C3E840083130008880091250A128A11E3
:100C800026083C3E840083130008880091250A1240
:100C90008A115630880091250A128A1129082B06DC
:100CA000031D542E28082A060319852E22083C3ECF
:100CB00084008313000899007C252E3099007C2540
:100CC00023083C3E84008313000899007C252408F7
:100CD0003C3E84008313000899007C2525083C3E97
:100CE00084008313000899007C2526083C3E84007C
:100CF0008313000899007C25563099007C2520300C
:100D000099007C25203099007C252A08A8002B0812
:100D1000A900E82DF000F4010310FD307107031C59
:100D2000B12EF301F0307105031D992E0430F3004C
:100D3000F10EF2010310F30AF10D031C9B2EF10CCE
:100D4000710870020318F000F20DF30B9F2EF41FD0
:100D5000AB2EF209F20A7208F41F0800F009F00A3B
:100D60000800F10C0318BA2EF10C031CF00103105B
:100D7000F00C031C03107008F200F001F00DA72E18
:100D8000F601F401F50172087304031DCA2EF00187
:100D9000F10100341F30F6040310F60AF20DF30DD2
:100DA000031CCD2EF30CF20C73087102031DDA2E16
:100DB00072087002031CE22E7208F0027308031C12
:100DC000730AF102F40DF50DF60BF61AD22EF61F8A
:100DD000EE2EF409F40A0319F503F5097408F2007C
:100DE0007508F300761F0034F009F00A0319F103C7
:100DF000F1090034840183120313E501F31F0F2F5F
:100E00000310FF30F007F009031CF107F109031C80
:100E1000F207F209031CF307F3096517E5177708D2
:100E20008039E506F71F262F0310FF30F407F40979
:100E3000031CF507F509031CF607F609031CF70761
:100E4000F709262F840183120313E501F801F90144
:100E5000FA01FB0174087504760477040319332F33
:100E6000C030E5053E2FF001F101F201F301CC2F76
:100E70000310F40DF50DF60DF70DE50AF71F382FE9
:100E8000E50A0310F80DF90DFA0DFB0D7708730252
:100E9000031D542F76087202031D542F750871022A
:100EA000031D542F74087002031C662F78147408F5
:100EB000F0027508031C750FF1027608031C760F0B
:100EC000F2027708031C770FF3020310F70CF60CFD
:100ED000F50CF40CE50365083F39031D412F651F30
:100EE0007E2F0310FF30F007F009031CF107F10912
:100EF000031CF207F209031CF307F3097008F4005E
:100F00007108F5007208F6007308F7007808F00021
:100F10007908F1007A08F2007B08F300E51FCC2F76
:100F20000310FF30F007F009031CF107F109031C5F
:100F3000F207F209031CF307F309CC2F84017008B0
:100F4000F8007108F9007208FA007308FB00F2015A
:100F5000F301F001F1010310FB0CFA0CF90CF80C91
:100F6000031CC02F7408F00775080318750FF107EC
:100F700076080318760FF20777080318770FF30740
:100F8000780879047A047B040319CC2F0310F40D3C
:100F9000F50DF60DF70DAB2F840803190034730817
:100FA0008000840372088000840371088000840339
:100FB0007008800000343034313432343334343407
:100FC00035343634373438343934413442344334A8
:100FD0004434453446346D34793420346E346134CD
:100FE0006D3465342034693473342034703469349A
:100FF000633431343634663438343734373420345B
:02400E0029FF88
:00000001FF
