:060000000A128A11122809
:10000800FE00030EF5000408F6000A08F700831244
:1000180003137F08F8000A128A1184280A128A1129
:100028002329FA01FF308316031387000C30990047
:100038002430980090308312031398008B170B1705
:10004800831603138C1683120313BA0115303A0270
:10005800031C2F28302832284D284D283A08203EE6
:100068008400831300089900F430B5000130B6000D
:100078000A128A11D4200A128A110130831203133A
:10008800B9003908BA0715303A02031C4C284D2824
:100098003228BA0164303A02031C532854285628DF
:1000A8007E287E283A08831203178D003F3083127A
:1000B8000313B9003908831603178C050C1483122F
:1000C80003170C08831203139900F430B5000130AC
:1000D800B6000A128A11D4200A128A11013083123A
:1000E8000313B9003908BA0764303A02031C7D28A3
:1000F8007E285628FA01802880280A128A11122898
:100108001A08990088288828831603178C188D28C0
:100118008E2888288F287A08831203178D00831267
:1001280003131A08831203178C003F30F400740875
:10013800831603178C058312031303108B1FA5283E
:10014800A628A72803148B13831603170C155530FC
:100158008D00AA308D008C140C1183120313031C1C
:10016800B628B728BA288B17BA28BA28E830F0007A
:100178000330F1000A128A11F2200A128A110130A2
:10018800F4007408FA07780883120313FF0077084D
:100198008A0076088400750E8300FE0E7E0E090024
:1001A800831203133608B801B8073508B701B70733
:1001B80038083704031DE128E228E428F128F1284B
:1001C8000130B7020030031CB803B80238083704FE
:1001D800031DEF28F028E428F12808007108F3012E
:1001E800F3077008F201F20773087204031DFD2873
:1001F800FE2800290D290D290130F2020030031CC8
:10020800F303F30273087204031D0B290C29002958
:100218000D2908006D34793420346E3461346D341E
:100228006534203469347334203470346934633469
:100238003134363466343834373437342034F901BD
:10024800FA01BA0183133530FD000130FE000E308B
:10025800FF00203084000A128A113C210A128A11F8
:1002680083010A128A1115287E088A007F088200F5
:100278000A128A1138210A128A118000840A040895
:0E0288007D0603190034FF0A0319FE0A3C2903
:00000001FF
