:060000000A128A11122809
:10000800FE00030EF2000408F3000A08F40083124D
:1000180003137F08F5000A128A11B1280A128A11FF
:1000280048290A128A11FB200A128A11831603131F
:1000380007157A1007309F008B170B170C158312C2
:1000480003130C11831603130C14831203130C10DF
:100058000130900005309700312880308312031357
:1000680088000A128A1194210A128A1176088312CA
:100078000313B60004300310B60CFF3E031D3F28DF
:100088003608203E84008313000888000A128A116B
:1000980086210A128A1176080F39203E84008313BC
:1000A80000088312031388000A128A1186210A1293
:1000B8008A11770883120313B60004300310B60CB4
:1000C800FF3E031D62283608203E84008313000883
:1000D80088000A128A1186210A128A1177080F39B4
:1000E800203E8400831300088312031388000A1239
:1000F8008A1186210A128A11780883120313B6001E
:1001080004300310B60CFF3E031D85283608203E38
:1001180084008313000888000A128A1186210A12B3
:100128008A1178080F39203E84008313000883124F
:10013800031388000A128A1186210A128A1148308C
:100148008312031388000A128A1186210A128A115F
:10015800312831280A128A1112280C1DB428B52812
:10016800E4280130FA067A1CBA28BB28D0288F0167
:100178008E018E011014F9011608F000F1017008C3
:10018800B0007108B1001508F000F1017008B20064
:100198007108B3000C11EF281508013EF000700833
:1001A800F8000030031801301607F0007008F70057
:1001B8007908F0007008F60010100C11EF28EF28ED
:1001C8000C140C1CE828E928EF280130F00070080E
:1001D800F907EF28EF280C107508FF0074088A004B
:1001E80073088400720E8300FE0E7E0E09008316CB
:1001F8000313880185018312031388010A128A11E7
:100208002C210A128A1101308312031388000A1262
:100218008A1194210A128A11383083120313880034
:100228000A128A1194210A128A110C3083120313BC
:1002380088000A128A1194210A128A110630831240
:10024800031388000A128A1194210A128A110800DD
:10025800E73083120313B4000330B50035083404C3
:10026800031D372938293A29472947290130B4027B
:100278000030031CB503B50235083404031D4529B5
:1002880046293A2947290800FA01F601F701F80139
:10029800F901B001B101B201B30183133030FD009F
:1002A8000130FE007630FF00203084000A128A11E7
:1002B80067210A128A1183010A128A1115287E08F9
:1002C8008A007F0882000A128A1163210A128A11A1
:1002D8008000840A04087D0603190034FF0A031904
:1002E800FE0A672930343134323433343434353407
:1002F800363437343834393441344234433444346E
:1003080045344634831203138516051285110A12E3
:100318008A112C210A128A118312031385150800E9
:10032800831203138512051285110A128A112C21D2
:0C0338000A128A118312031385150800B5
:02400E0029FF88
:00000001FF
