:060000000A128A11932E82
:100CA800831203138512051285110A128A11AB26C5
:100CB8000A128A118312031385150800831203137D
:100CC8008516051285110A128A11AB260A128A1195
:100CD8008312031385150800303431343234333429
:100CE8003434353436343734383439344134423492
:100CF80043344434453446347E088A007F088200F1
:100D08000A128A1180260A128A118000840A0408AD
:100D18007D0603190034FF0A0319FE0A842EF00128
:100D2800F101F201F301F401F50183133030FD0004
:100D38000630FE007030FF00203084000A128A114D
:100D480084260A128A1183010A128A11C52EE730F5
:100D5800F6000330F70077087604031DB42EB52E8D
:100D6800B72EC42EC42E0130F6020030031CF70340
:100D7800F70277087604031DC22EC32EB72EC42EA1
:100D880008000F308316031386008113F501F40160
:100D980088018312031309150730831603139F0074
:100DA8008501831203138510880185150A128A119B
:100DB800AB260A128A1101308312031388000A1223
:100DC8008A1154260A128A113830831203138800B4
:100DD8000A128A1154260A128A110C30831203133C
:100DE80088000A128A1154260A128A1106308312C0
:100DF800031388000A128A1154260A128A11042F32
:100E080080308312031388000A128A1154260A12AA
:100E18008A117F30831203138600000083120313A4
:100E28000608F8007808F50075080F39F800780802
:100E3800F50075080F3A0319222F232F292F75085B
:100E48007038F8007808F5007E2FBF308600000063
:100E5800831203130608F8007808F50075080F399F
:100E6800F8007808F50075080F3A03193C2F3D2F54
:100E7800432F7508B038F8007808F5007E2FDF306A
:100E880086000000831203130608F8007808F500AE
:100E980075080F39F8007808F50075080F3A031936
:100EA800562F572F5D2F7508D038F8007808F500B1
:100EB8007E2FEF3086000000831203130608F80027
:100EC8007808F50075080F39F8007808F5007508F6
:100ED8000F3A0319702F712F772F7508E038F80033
:100EE8007808F5007E2FFF30F8007808F5007E2F8F
:100EF8007E2F7E2F7508FF3A031D832F842F892F9D
:100F08007408F8007808F500C22F7508F80078080A
:100F1800F400C22FC22F23088800F72F2208880068
:100F2800F72F21088800F72F20088800F72F2708B7
:100F38008800F72F26088800F72F25088800F72F44
:100F480024088800F72F2B088800F72F2A08880024
:100F5800F72F29088800F72F28088800F72F2F086F
:100F68008800F72F2E088800F72F2D088800F72F04
:100F78002C088800F72F58308800F72F7508003A9A
:100F88000319BF2F773A0319B32F0C3A0319B62F59
:100F9800063A0319B92F033A0319BC2FC93A0319A2
:100FA800A72F0C3A0319AA2F063A0319AD2F033AB3
:100FB8000319B02F693A03199B2F0C3A03199E2F76
:100FC800063A0319A12F033A0319A42F393A031932
:100FD8008F2F0C3A0319922F063A0319952F033ACB
:100FE8000319982FF72F0A128A1162260A128A11FA
:080FF800042F0A128A110028DF
:02400E0029FF88
:00000001FF
